{
  "contractName": "MultiTransfer",
  "abi": [
    {
      "inputs": [
        {
          "internalType": "address",
          "name": "_token",
          "type": "address"
        },
        {
          "internalType": "address[]",
          "name": "_addresses",
          "type": "address[]"
        },
        {
          "internalType": "uint256[]",
          "name": "_amounts",
          "type": "uint256[]"
        },
        {
          "internalType": "uint256",
          "name": "_amountSum",
          "type": "uint256"
        }
      ],
      "name": "multiTransferToken",
      "outputs": [],
      "stateMutability": "payable",
      "type": "function"
    }
  ],
  "bytecode": "0x608060405234801561001057600080fd5b50610b69806100206000396000f3fe60806040526004361061001e5760003560e01c8063db0c03b414610023575b600080fd5b61003d6004803603810190610038919061060a565b61003f565b005b60008690506100713330848473ffffffffffffffffffffffffffffffffffffffff16610195909392919063ffffffff16565b60005b868690508160ff16101561018b576100b185858360ff1681811061009b5761009a6106b1565b5b905060200201358461021e90919063ffffffff16565b92508173ffffffffffffffffffffffffffffffffffffffff1663a9059cbb88888460ff168181106100e5576100e46106b1565b5b90506020020160208101906100fa91906106e0565b87878560ff168181106101105761010f6106b1565b5b905060200201356040518363ffffffff1660e01b815260040161013492919061072b565b6020604051808303816000875af1158015610153573d6000803e3d6000fd5b505050506040513d601f19601f82011682018060405250810190610177919061078c565b508080610183906107f5565b915050610074565b5050505050505050565b610218846323b872dd60e01b8585856040516024016101b69392919061081f565b604051602081830303815290604052907bffffffffffffffffffffffffffffffffffffffffffffffffffffffff19166020820180517bffffffffffffffffffffffffffffffffffffffffffffffffffffffff8381831617835250505050610234565b50505050565b6000818361022c9190610856565b905092915050565b6000610296826040518060400160405280602081526020017f5361666545524332303a206c6f772d6c6576656c2063616c6c206661696c65648152508573ffffffffffffffffffffffffffffffffffffffff166102fb9092919063ffffffff16565b90506000815111156102f657808060200190518101906102b6919061078c565b6102f5576040517f08c379a00000000000000000000000000000000000000000000000000000000081526004016102ec9061090d565b60405180910390fd5b5b505050565b606061030a8484600085610313565b90509392505050565b606082471015610358576040517f08c379a000000000000000000000000000000000000000000000000000000000815260040161034f9061099f565b60405180910390fd5b61036185610427565b6103a0576040517f08c379a000000000000000000000000000000000000000000000000000000000815260040161039790610a0b565b60405180910390fd5b6000808673ffffffffffffffffffffffffffffffffffffffff1685876040516103c99190610aa5565b60006040518083038185875af1925050503d8060008114610406576040519150601f19603f3d011682016040523d82523d6000602084013e61040b565b606091505b509150915061041b82828661044a565b92505050949350505050565b6000808273ffffffffffffffffffffffffffffffffffffffff163b119050919050565b6060831561045a578290506104aa565b60008351111561046d5782518084602001fd5b816040517f08c379a00000000000000000000000000000000000000000000000000000000081526004016104a19190610b11565b60405180910390fd5b9392505050565b600080fd5b600080fd5b600073ffffffffffffffffffffffffffffffffffffffff82169050919050565b60006104e6826104bb565b9050919050565b6104f6816104db565b811461050157600080fd5b50565b600081359050610513816104ed565b92915050565b600080fd5b600080fd5b600080fd5b60008083601f84011261053e5761053d610519565b5b8235905067ffffffffffffffff81111561055b5761055a61051e565b5b60208301915083602082028301111561057757610576610523565b5b9250929050565b60008083601f84011261059457610593610519565b5b8235905067ffffffffffffffff8111156105b1576105b061051e565b5b6020830191508360208202830111156105cd576105cc610523565b5b9250929050565b6000819050919050565b6105e7816105d4565b81146105f257600080fd5b50565b600081359050610604816105de565b92915050565b60008060008060008060808789031215610627576106266104b1565b5b600061063589828a01610504565b965050602087013567ffffffffffffffff811115610656576106556104b6565b5b61066289828a01610528565b9550955050604087013567ffffffffffffffff811115610685576106846104b6565b5b61069189828a0161057e565b935093505060606106a489828a016105f5565b9150509295509295509295565b7f4e487b7100000000000000000000000000000000000000000000000000000000600052603260045260246000fd5b6000602082840312156106f6576106f56104b1565b5b600061070484828501610504565b91505092915050565b610716816104db565b82525050565b610725816105d4565b82525050565b6000604082019050610740600083018561070d565b61074d602083018461071c565b9392505050565b60008115159050919050565b61076981610754565b811461077457600080fd5b50565b60008151905061078681610760565b92915050565b6000602082840312156107a2576107a16104b1565b5b60006107b084828501610777565b91505092915050565b7f4e487b7100000000000000000000000000000000000000000000000000000000600052601160045260246000fd5b600060ff82169050919050565b6000610800826107e8565b915060ff821415610814576108136107b9565b5b600182019050919050565b6000606082019050610834600083018661070d565b610841602083018561070d565b61084e604083018461071c565b949350505050565b6000610861826105d4565b915061086c836105d4565b92508282101561087f5761087e6107b9565b5b828203905092915050565b600082825260208201905092915050565b7f5361666545524332303a204552433230206f7065726174696f6e20646964206e60008201527f6f74207375636365656400000000000000000000000000000000000000000000602082015250565b60006108f7602a8361088a565b91506109028261089b565b604082019050919050565b60006020820190508181036000830152610926816108ea565b9050919050565b7f416464726573733a20696e73756666696369656e742062616c616e636520666f60008201527f722063616c6c0000000000000000000000000000000000000000000000000000602082015250565b600061098960268361088a565b91506109948261092d565b604082019050919050565b600060208201905081810360008301526109b88161097c565b9050919050565b7f416464726573733a2063616c6c20746f206e6f6e2d636f6e7472616374000000600082015250565b60006109f5601d8361088a565b9150610a00826109bf565b602082019050919050565b60006020820190508181036000830152610a24816109e8565b9050919050565b600081519050919050565b600081905092915050565b60005b83811015610a5f578082015181840152602081019050610a44565b83811115610a6e576000848401525b50505050565b6000610a7f82610a2b565b610a898185610a36565b9350610a99818560208601610a41565b80840191505092915050565b6000610ab18284610a74565b915081905092915050565b600081519050919050565b6000601f19601f8301169050919050565b6000610ae382610abc565b610aed818561088a565b9350610afd818560208601610a41565b610b0681610ac7565b840191505092915050565b60006020820190508181036000830152610b2b8184610ad8565b90509291505056fea2646970667358221220d63271ee65aec3e573b77dcebbaf6f3f8d3eaae72ffeb8678183207f8842edaf64736f6c634300080c0033",
  "immutableReferences": {},
  "source": "// contracts/MultiTransfer.sol\r\n// SPDX-License-Identifier: MIT\r\npragma solidity ^0.8.1;\r\n\r\nimport \"@openzeppelin/contracts/utils/math/SafeMath.sol\";\r\nimport \"@openzeppelin/contracts/token/ERC20/utils/SafeERC20.sol\";\r\n\r\ncontract MultiTransfer {\r\n  using SafeMath for uint256;\r\n  using SafeERC20 for IERC20;\r\n\r\n  function multiTransferToken(\r\n    address _token,\r\n    address[] calldata _addresses,\r\n    uint256[] calldata _amounts,\r\n    uint256 _amountSum\r\n  ) payable external\r\n  {\r\n\r\n    IERC20 token = IERC20(_token);\r\n    token.safeTransferFrom(msg.sender, address(this), _amountSum);\r\n    for (uint8 i; i < _addresses.length; i++) {\r\n      _amountSum = _amountSum.sub(_amounts[i]);\r\n      token.transfer(_addresses[i], _amounts[i]);\r\n    }\r\n  }\r\n}",
  "sourcePath": "C:\\Projects\\solidity-study\\multitransfer-token\\contracts\\MultiTransfer.sol",
  "compiler": {
    "name": "solc",
    "version": "0.8.12+commit.f00d7308.Emscripten.clang"
  },
  "schemaVersion": "3.4.6",
  "updatedAt": "2022-03-26T15:37:51.525Z",
  "devdoc": {
    "kind": "dev",
    "methods": {},
    "version": 1
  },
  "userdoc": {
    "kind": "user",
    "methods": {},
    "version": 1
  }
}